{"abi":[{"type":"constructor","inputs":[{"name":"_creditScoreContract","type":"address","internalType":"address"}],"stateMutability":"nonpayable"},{"type":"function","name":"baseInterestRate","inputs":[],"outputs":[{"name":"","type":"uint256","internalType":"uint256"}],"stateMutability":"view"},{"type":"function","name":"borrow","inputs":[{"name":"borrower","type":"address","internalType":"address"},{"name":"amount","type":"uint256","internalType":"uint256"}],"outputs":[{"name":"","type":"uint256","internalType":"uint256"}],"stateMutability":"nonpayable"},{"type":"function","name":"calculateInterestRate","inputs":[{"name":"borrower","type":"address","internalType":"address"}],"outputs":[{"name":"","type":"uint256","internalType":"uint256"}],"stateMutability":"view"},{"type":"function","name":"creditCoefficient","inputs":[],"outputs":[{"name":"","type":"uint256","internalType":"uint256"}],"stateMutability":"view"},{"type":"function","name":"creditScoreContract","inputs":[],"outputs":[{"name":"","type":"address","internalType":"contract CreditScore"}],"stateMutability":"view"},{"type":"function","name":"deposit","inputs":[],"outputs":[],"stateMutability":"payable"},{"type":"function","name":"getAvailableLiquidity","inputs":[],"outputs":[{"name":"","type":"uint256","internalType":"uint256"}],"stateMutability":"view"},{"type":"function","name":"getLpValue","inputs":[{"name":"provider","type":"address","internalType":"address"}],"outputs":[{"name":"","type":"uint256","internalType":"uint256"}],"stateMutability":"view"},{"type":"function","name":"getMaxBorrowAmount","inputs":[{"name":"borrower","type":"address","internalType":"address"}],"outputs":[{"name":"","type":"uint256","internalType":"uint256"}],"stateMutability":"view"},{"type":"function","name":"handleDefault","inputs":[{"name":"loanAmount","type":"uint256","internalType":"uint256"}],"outputs":[],"stateMutability":"nonpayable"},{"type":"function","name":"lpTokens","inputs":[{"name":"","type":"address","internalType":"address"}],"outputs":[{"name":"","type":"uint256","internalType":"uint256"}],"stateMutability":"view"},{"type":"function","name":"owner","inputs":[],"outputs":[{"name":"","type":"address","internalType":"address"}],"stateMutability":"view"},{"type":"function","name":"renounceOwnership","inputs":[],"outputs":[],"stateMutability":"nonpayable"},{"type":"function","name":"repay","inputs":[{"name":"principal","type":"uint256","internalType":"uint256"},{"name":"interest","type":"uint256","internalType":"uint256"}],"outputs":[],"stateMutability":"payable"},{"type":"function","name":"riskReserve","inputs":[],"outputs":[{"name":"","type":"uint256","internalType":"uint256"}],"stateMutability":"view"},{"type":"function","name":"totalBorrowed","inputs":[],"outputs":[{"name":"","type":"uint256","internalType":"uint256"}],"stateMutability":"view"},{"type":"function","name":"totalLiquidity","inputs":[],"outputs":[{"name":"","type":"uint256","internalType":"uint256"}],"stateMutability":"view"},{"type":"function","name":"totalLpTokens","inputs":[],"outputs":[{"name":"","type":"uint256","internalType":"uint256"}],"stateMutability":"view"},{"type":"function","name":"transferOwnership","inputs":[{"name":"newOwner","type":"address","internalType":"address"}],"outputs":[],"stateMutability":"nonpayable"},{"type":"function","name":"updateParameters","inputs":[{"name":"_baseRate","type":"uint256","internalType":"uint256"},{"name":"_utilizationCoef","type":"uint256","internalType":"uint256"},{"name":"_creditCoef","type":"uint256","internalType":"uint256"}],"outputs":[],"stateMutability":"nonpayable"},{"type":"function","name":"utilizationCoefficient","inputs":[],"outputs":[{"name":"","type":"uint256","internalType":"uint256"}],"stateMutability":"view"},{"type":"function","name":"withdraw","inputs":[{"name":"lpAmount","type":"uint256","internalType":"uint256"}],"outputs":[],"stateMutability":"nonpayable"},{"type":"event","name":"Deposited","inputs":[{"name":"provider","type":"address","indexed":true,"internalType":"address"},{"name":"amount","type":"uint256","indexed":false,"internalType":"uint256"},{"name":"lpTokens","type":"uint256","indexed":false,"internalType":"uint256"}],"anonymous":false},{"type":"event","name":"InterestRateUpdated","inputs":[{"name":"newRate","type":"uint256","indexed":false,"internalType":"uint256"}],"anonymous":false},{"type":"event","name":"OwnershipTransferred","inputs":[{"name":"previousOwner","type":"address","indexed":true,"internalType":"address"},{"name":"newOwner","type":"address","indexed":true,"internalType":"address"}],"anonymous":false},{"type":"event","name":"Withdrawn","inputs":[{"name":"provider","type":"address","indexed":true,"internalType":"address"},{"name":"amount","type":"uint256","indexed":false,"internalType":"uint256"},{"name":"lpTokens","type":"uint256","indexed":false,"internalType":"uint256"}],"anonymous":false},{"type":"error","name":"OwnableInvalidOwner","inputs":[{"name":"owner","type":"address","internalType":"address"}]},{"type":"error","name":"OwnableUnauthorizedAccount","inputs":[{"name":"account","type":"address","internalType":"address"}]},{"type":"error","name":"ReentrancyGuardReentrantCall","inputs":[]}],"bytecode":{"object":"0x60806040526101f46005556103e86006556101f4600755348015610021575f80fd5b506040516111aa3803806111aa83398101604081905261004091610107565b338061006557604051631e4fbdf760e01b81525f600482015260240160405180910390fd5b61006e816100b8565b5060017f9b779b17422d0df92223018b32b4d1fa46e071723d6817e2486d003becc55f0055600180546001600160a01b0319166001600160a01b0392909216919091179055610134565b5f80546001600160a01b038381166001600160a01b0319831681178455604051919092169283917f8be0079c531659141344cd1fd0a4f28419497f9722a3daafe3b4186f6b6457e09190a35050565b5f60208284031215610117575f80fd5b81516001600160a01b038116811461012d575f80fd5b9392505050565b611069806101415f395ff3fe608060405260043610610131575f3560e01c8063868c844f116100a8578063c0d188431161006d578063c0d1884314610309578063d0e30db014610328578063d8aed14514610330578063f2fde38b14610343578063f58fd84314610362578063f76d50ad14610377575f80fd5b8063868c844f146102845780638da5cb5b146102995780639b745aec146102b5578063afd92762146102c9578063b17b658d146102de575f80fd5b80634b79cb0f116100f95780634b79cb0f146101e95780634b8a3529146102085780634c19386c146102275780636b4ef9321461023c578063715018a6146102515780637e9ed0c314610265575f80fd5b806303a42b6f1461013557806315770f92146101715780632e1a7d4d1461019457806344c5999e146101b55780634af37b23146101ca575b5f80fd5b348015610140575f80fd5b50600154610154906001600160a01b031681565b6040516001600160a01b0390911681526020015b60405180910390f35b34801561017c575f80fd5b5061018660025481565b604051908152602001610168565b34801561019f575f80fd5b506101b36101ae366004610eaf565b610396565b005b3480156101c0575f80fd5b5061018660045481565b3480156101d5575f80fd5b506101b36101e4366004610eaf565b6105f8565b3480156101f4575f80fd5b50610186610203366004610ee1565b6106bd565b348015610213575f80fd5b50610186610222366004610f01565b610768565b348015610232575f80fd5b5061018660035481565b348015610247575f80fd5b5061018660065481565b34801561025c575f80fd5b506101b3610965565b348015610270575f80fd5b5061018661027f366004610ee1565b610978565b34801561028f575f80fd5b5061018660095481565b3480156102a4575f80fd5b505f546001600160a01b0316610154565b3480156102c0575f80fd5b506101866109bb565b3480156102d4575f80fd5b5061018660055481565b3480156102e9575f80fd5b506101866102f8366004610ee1565b60086020525f908152604090205481565b348015610314575f80fd5b50610186610323366004610ee1565b6109e1565b6101b3610ba9565b6101b361033e366004610f29565b610ce1565b34801561034e575f80fd5b506101b361035d366004610ee1565b610d9a565b34801561036d575f80fd5b5061018660075481565b348015610382575f80fd5b506101b3610391366004610f49565b610dd4565b61039e610dea565b335f908152600860205260409020548111156103fa5760405162461bcd60e51b8152602060048201526016602482015275496e73756666696369656e74204c5020746f6b656e7360501b60448201526064015b60405180910390fd5b5f811161045a5760405162461bcd60e51b815260206004820152602860248201527f5769746864726177616c20616d6f756e74206d75737420626520677265617465604482015267072207468616e20360c41b60648201526084016103f1565b5f6009546002548361046c9190610f86565b6104769190610f9d565b90506104806109bb565b8111156104c85760405162461bcd60e51b8152602060048201526016602482015275496e73756666696369656e74206c697175696469747960501b60448201526064016103f1565b335f90815260086020526040812080548492906104e6908490610fbc565b925050819055508160095f8282546104fe9190610fbc565b925050819055508060025f8282546105169190610fbc565b90915550506040515f90339083908381818185875af1925050503d805f811461055a576040519150601f19603f3d011682016040523d82523d5f602084013e61055f565b606091505b50509050806105a25760405162461bcd60e51b815260206004820152600f60248201526e151c985b9cd9995c8819985a5b1959608a1b60448201526064016103f1565b604080518381526020810185905233917f92ccf450a286a957af52509bc1c9939d1a6a481783e142e41e2499f0bb66ebc6910160405180910390a250506105f560015f8051602061101483398151915255565b50565b610600610e05565b6003548111156106485760405162461bcd60e51b8152602060048201526013602482015272125b9d985b1a59081b1bd85b88185b5bdd5b9d606a1b60448201526064016103f1565b8060035f8282546106599190610fbc565b90915550506004548111610683578060045f8282546106789190610fbc565b909155506105f59050565b5f600454826106929190610fbc565b5f60045560025490915081106106a8575f6106b6565b806002546106b69190610fbc565b6002555050565b5f806106c76109bb565b60015460405163879ed13d60e01b81526001600160a01b0386811660048301529293505f929091169063879ed13d90602401602060405180830381865afa158015610714573d5f803e3d5ffd5b505050506040513d601f19601f820116820180604052508101906107389190610fcf565b90505f610746600a84610f9d565b90506127106107558383610f86565b61075f9190610f9d565b95945050505050565b5f610771610e05565b5f82116107cc5760405162461bcd60e51b8152602060048201526024808201527f426f72726f7720616d6f756e74206d75737420626520677265617465722074686044820152630616e20360e41b60648201526084016103f1565b6107d5836106bd565b8211156108245760405162461bcd60e51b815260206004820152601760248201527f4578636565647320626f72726f77696e67206c696d697400000000000000000060448201526064016103f1565b61082c6109bb565b8211156108745760405162461bcd60e51b8152602060048201526016602482015275496e73756666696369656e74206c697175696469747960501b60448201526064016103f1565b8160035f8282546108859190610fe6565b909155505f9050610895846109e1565b90505f846001600160a01b0316846040515f6040518083038185875af1925050503d805f81146108e0576040519150601f19603f3d011682016040523d82523d5f602084013e6108e5565b606091505b50509050806109285760405162461bcd60e51b815260206004820152600f60248201526e151c985b9cd9995c8819985a5b1959608a1b60448201526064016103f1565b6040518281527fa90e14be5aa57b910aa6dc16c31ff1b5cda380ae25a793b0d3f74df6131a7d749060200160405180910390a15090505b92915050565b61096d610e05565b6109765f610e31565b565b5f6009545f0361098957505f919050565b6009546002546001600160a01b0384165f908152600860205260409020546109b19190610f86565b61095f9190610f9d565b5f600354600254116109cc57505f90565b6003546002546109dc9190610fbc565b905090565b60015460405163d3dd2bdf60e01b81526001600160a01b0383811660048301525f92839291169063d3dd2bdf90602401602060405180830381865afa158015610a2c573d5f803e3d5ffd5b505050506040513d601f19601f82011682018060405250810190610a509190610fcf565b90505f8060025411610a62575f610a7e565b600254600354610a7490612710610f86565b610a7e9190610f9d565b90505f808311610a90576103e8610a9c565b610a9c836103e8610fbc565b90505f6103e860075483610ab09190610f86565b610aba9190610f9d565b61271060065485610acb9190610f86565b610ad59190610f9d565b600554610ae29190610fe6565b610aec9190610fe6565b60015460405163e3c1607b60e01b81526001600160a01b0389811660048301529293505f929091169063e3c1607b90602401602060405180830381865afa158015610b39573d5f803e3d5ffd5b505050506040513d601f19601f82011682018060405250810190610b5d9190610fcf565b90505f811215610b92575f610b7182610ff9565b9050808311610b80575f610b8a565b610b8a8184610fbc565b925050610b9f565b610b9c8183610fe6565b91505b5095945050505050565b610bb1610dea565b5f3411610c0e5760405162461bcd60e51b815260206004820152602560248201527f4465706f73697420616d6f756e74206d75737420626520677265617465722074604482015264068616e20360dc1b60648201526084016103f1565b5f6009545f03610c1f575034610c3c565b600254600954610c2f9034610f86565b610c399190610f9d565b90505b335f9081526008602052604081208054839290610c5a908490610fe6565b925050819055508060095f828254610c729190610fe6565b925050819055503460025f828254610c8a9190610fe6565b9091555050604080513481526020810183905233917f73a19dd210f1a7f902193214c0ee91dd35ee5b4d920cba8d519eca65a7b488ca910160405180910390a25061097660015f8051602061101483398151915255565b610ce9610e05565b610cf38183610fe6565b341015610d425760405162461bcd60e51b815260206004820152601d60248201527f496e73756666696369656e742072657061796d656e7420616d6f756e7400000060448201526064016103f1565b8160035f828254610d539190610fbc565b925050819055508060025f828254610d6b9190610fe6565b909155505f9050610d7d600a83610f9d565b90508060045f828254610d909190610fe6565b9091555050505050565b610da2610e05565b6001600160a01b038116610dcb57604051631e4fbdf760e01b81525f60048201526024016103f1565b6105f581610e31565b610ddc610e05565b600592909255600655600755565b610df2610e80565b60025f8051602061101483398151915255565b5f546001600160a01b031633146109765760405163118cdaa760e01b81523360048201526024016103f1565b5f80546001600160a01b038381166001600160a01b0319831681178455604051919092169283917f8be0079c531659141344cd1fd0a4f28419497f9722a3daafe3b4186f6b6457e09190a35050565b5f805160206110148339815191525460020361097657604051633ee5aeb560e01b815260040160405180910390fd5b5f60208284031215610ebf575f80fd5b5035919050565b80356001600160a01b0381168114610edc575f80fd5b919050565b5f60208284031215610ef1575f80fd5b610efa82610ec6565b9392505050565b5f8060408385031215610f12575f80fd5b610f1b83610ec6565b946020939093013593505050565b5f8060408385031215610f3a575f80fd5b50508035926020909101359150565b5f805f60608486031215610f5b575f80fd5b505081359360208301359350604090920135919050565b634e487b7160e01b5f52601160045260245ffd5b808202811582820484141761095f5761095f610f72565b5f82610fb757634e487b7160e01b5f52601260045260245ffd5b500490565b8181038181111561095f5761095f610f72565b5f60208284031215610fdf575f80fd5b5051919050565b8082018082111561095f5761095f610f72565b5f600160ff1b820161100d5761100d610f72565b505f039056fe9b779b17422d0df92223018b32b4d1fa46e071723d6817e2486d003becc55f00a26469706673582212203387d13e5db37d8f39167b9cfdd2ee46f48c1c5084d322b18b02d6b5e207735d64736f6c63430008140033","linkReferences":{}},"methodIdentifiers":{"baseInterestRate()":"afd92762","borrow(address,uint256)":"4b8a3529","calculateInterestRate(address)":"c0d18843","creditCoefficient()":"f58fd843","creditScoreContract()":"03a42b6f","deposit()":"d0e30db0","getAvailableLiquidity()":"9b745aec","getLpValue(address)":"7e9ed0c3","getMaxBorrowAmount(address)":"4b79cb0f","handleDefault(uint256)":"4af37b23","lpTokens(address)":"b17b658d","owner()":"8da5cb5b","renounceOwnership()":"715018a6","repay(uint256,uint256)":"d8aed145","riskReserve()":"44c5999e","totalBorrowed()":"4c19386c","totalLiquidity()":"15770f92","totalLpTokens()":"868c844f","transferOwnership(address)":"f2fde38b","updateParameters(uint256,uint256,uint256)":"f76d50ad","utilizationCoefficient()":"6b4ef932","withdraw(uint256)":"2e1a7d4d"},"id":19}