{"abi":[{"type":"constructor","inputs":[],"stateMutability":"nonpayable"},{"type":"function","name":"creditScores","inputs":[{"name":"","type":"address","internalType":"address"}],"outputs":[{"name":"score","type":"uint256","internalType":"uint256"},{"name":"tier","type":"uint8","internalType":"enum CreditScore.Tier"},{"name":"totalLoans","type":"uint256","internalType":"uint256"},{"name":"successfulRepayments","type":"uint256","internalType":"uint256"},{"name":"defaults","type":"uint256","internalType":"uint256"},{"name":"lastCalculated","type":"uint256","internalType":"uint256"}],"stateMutability":"view"},{"type":"function","name":"getBorrowingLimitMultiplier","inputs":[{"name":"user","type":"address","internalType":"address"}],"outputs":[{"name":"","type":"uint256","internalType":"uint256"}],"stateMutability":"view"},{"type":"function","name":"getCreditData","inputs":[{"name":"user","type":"address","internalType":"address"}],"outputs":[{"name":"","type":"tuple","internalType":"struct CreditScore.Score","components":[{"name":"score","type":"uint256","internalType":"uint256"},{"name":"tier","type":"uint8","internalType":"enum CreditScore.Tier"},{"name":"totalLoans","type":"uint256","internalType":"uint256"},{"name":"successfulRepayments","type":"uint256","internalType":"uint256"},{"name":"defaults","type":"uint256","internalType":"uint256"},{"name":"lastCalculated","type":"uint256","internalType":"uint256"}]}],"stateMutability":"view"},{"type":"function","name":"getCreditScore","inputs":[{"name":"user","type":"address","internalType":"address"}],"outputs":[{"name":"","type":"uint256","internalType":"uint256"}],"stateMutability":"view"},{"type":"function","name":"getCreditTier","inputs":[{"name":"user","type":"address","internalType":"address"}],"outputs":[{"name":"","type":"uint8","internalType":"enum CreditScore.Tier"}],"stateMutability":"view"},{"type":"function","name":"getInterestRateAdjustment","inputs":[{"name":"user","type":"address","internalType":"address"}],"outputs":[{"name":"","type":"int256","internalType":"int256"}],"stateMutability":"view"},{"type":"function","name":"initializeCreditScore","inputs":[{"name":"user","type":"address","internalType":"address"}],"outputs":[],"stateMutability":"nonpayable"},{"type":"function","name":"owner","inputs":[],"outputs":[{"name":"","type":"address","internalType":"address"}],"stateMutability":"view"},{"type":"function","name":"recordLoan","inputs":[{"name":"user","type":"address","internalType":"address"},{"name":"isRepayment","type":"bool","internalType":"bool"},{"name":"isDefault","type":"bool","internalType":"bool"}],"outputs":[],"stateMutability":"nonpayable"},{"type":"function","name":"renounceOwnership","inputs":[],"outputs":[],"stateMutability":"nonpayable"},{"type":"function","name":"transferOwnership","inputs":[{"name":"newOwner","type":"address","internalType":"address"}],"outputs":[],"stateMutability":"nonpayable"},{"type":"event","name":"CreditScoreUpdated","inputs":[{"name":"user","type":"address","indexed":true,"internalType":"address"},{"name":"score","type":"uint256","indexed":false,"internalType":"uint256"},{"name":"tier","type":"uint8","indexed":false,"internalType":"enum CreditScore.Tier"}],"anonymous":false},{"type":"event","name":"LoanRecorded","inputs":[{"name":"user","type":"address","indexed":true,"internalType":"address"},{"name":"success","type":"bool","indexed":false,"internalType":"bool"}],"anonymous":false},{"type":"event","name":"OwnershipTransferred","inputs":[{"name":"previousOwner","type":"address","indexed":true,"internalType":"address"},{"name":"newOwner","type":"address","indexed":true,"internalType":"address"}],"anonymous":false},{"type":"error","name":"OwnableInvalidOwner","inputs":[{"name":"owner","type":"address","internalType":"address"}]},{"type":"error","name":"OwnableUnauthorizedAccount","inputs":[{"name":"account","type":"address","internalType":"address"}]}],"bytecode":{"object":"0x608060405234801561000f575f80fd5b50338061003557604051631e4fbdf760e01b81525f600482015260240160405180910390fd5b61003e81610044565b50610093565b5f80546001600160a01b038381166001600160a01b0319831681178455604051919092169283917f8be0079c531659141344cd1fd0a4f28419497f9722a3daafe3b4186f6b6457e09190a35050565b610a71806100a05f395ff3fe608060405234801561000f575f80fd5b50600436106100a6575f3560e01c8063879ed13d1161006e578063879ed13d146101855780638da5cb5b146101a6578063d3dd2bdf146101c0578063e3c1607b146101e8578063f1d737fd146101fb578063f2fde38b1461020e575f80fd5b806359157a27146100aa57806360e97e05146100d357806361075f8e146100e8578063715018a61461012457806380bb72731461012c575b5f80fd5b6100bd6100b836600461089d565b610221565b6040516100ca91906108f1565b60405180910390f35b6100e66100e136600461094a565b6102dd565b005b6101176100f636600461089d565b6001600160a01b03165f908152600160208190526040909120015460ff1690565b6040516100ca919061098a565b6100e66104fa565b61017361013a36600461089d565b600160208190525f918252604090912080549181015460028201546003830154600484015460059094015460ff90931693919290919086565b6040516100ca9695949392919061099e565b61019861019336600461089d565b61050d565b6040519081526020016100ca565b5f546040516001600160a01b0390911681526020016100ca565b6101986101ce36600461089d565b6001600160a01b03165f9081526001602052604090205490565b6101986101f636600461089d565b61059e565b6100e661020936600461089d565b610631565b6100e661021c36600461089d565b61078f565b6102566040805160c081019091525f808252602082019081526020015f81526020015f81526020015f81526020015f81525090565b6001600160a01b0382165f90815260016020818152604092839020835160c0810190945280548452918201549083019060ff16600381111561029a5761029a6108bd565b60038111156102ab576102ab6108bd565b815260028201546020820152600382015460408201526004820154606082015260059091015460809091015292915050565b6102e56107cc565b6001600160a01b0383165f90815260016020526040812060058101549091036103765760405163f1d737fd60e01b81526001600160a01b0385166004820152309063f1d737fd906024015f604051808303815f87803b158015610346575f80fd5b505af1158015610358573d5f803e3d5ffd5b5050506001600160a01b0385165f9081526001602052604090209150505b600281018054905f610387836109e9565b919050555082156103e157600381018054905f6103a3836109e9565b909155505080546103e811156103dc576032815f015f8282546103c69190610a01565b909155505080546103e810156103dc576103e881555b610429565b811561042957600481018054905f6103f8836109e9565b9091555050805460961015610425576096815f015f82825461041a9190610a14565b909155506104299050565b5f81555b8054610434906107f8565b60018083018054909160ff1990911690836003811115610456576104566108bd565b0217905550426005820155805460018201546040516001600160a01b038716927ff26bd9669cbeeb29aa7ada6fa2b8b7c952bfc0510be7d21bd7fe95463f5d059a926104a79260ff90911690610a27565b60405180910390a2836001600160a01b03167f3cdf94377f0ffbfd094db4fc3861e2cc0d3c368098381468f3f9f5034afa7119846040516104ec911515815260200190565b60405180910390a250505050565b6105026107cc565b61050b5f610833565b565b6001600160a01b0381165f9081526001602081905260408220015460ff16600381600381111561053f5761053f6108bd565b0361054e575061271092915050565b6002816003811115610562576105626108bd565b036105715750611b5892915050565b6001816003811115610585576105856108bd565b03610594575061138892915050565b506107d092915050565b6001600160a01b0381165f9081526001602081905260408220015460ff1660038160038111156105d0576105d06108bd565b036105e057506103e71992915050565b60028160038111156105f4576105f46108bd565b0361060457506101f31992915050565b6001816003811115610618576106186108bd565b0361062757506101f492915050565b506105dc92915050565b6106396107cc565b6001600160a01b0381165f90815260016020526040902060050154156106a65760405162461bcd60e51b815260206004820152601d60248201527f5573657220616c726561647920686173206372656469742073636f726500000060448201526064015b60405180910390fd5b6040805160c0810182526101f48152600160208083018281525f84860181905260608501819052608085018190524260a08601526001600160a01b03871681529183905293902082518155925183820180549394939192909160ff191690836003811115610716576107166108bd565b021790555060408201518160020155606082015181600301556080820151816004015560a08201518160050155905050806001600160a01b03167ff26bd9669cbeeb29aa7ada6fa2b8b7c952bfc0510be7d21bd7fe95463f5d059a6101f46001604051610784929190610a27565b60405180910390a250565b6107976107cc565b6001600160a01b0381166107c057604051631e4fbdf760e01b81525f600482015260240161069d565b6107c981610833565b50565b5f546001600160a01b0316331461050b5760405163118cdaa760e01b815233600482015260240161069d565b5f610320821061080a57506003919050565b610258821061081b57506002919050565b610190821061082c57506001919050565b505f919050565b5f80546001600160a01b038381166001600160a01b0319831681178455604051919092169283917f8be0079c531659141344cd1fd0a4f28419497f9722a3daafe3b4186f6b6457e09190a35050565b80356001600160a01b0381168114610898575f80fd5b919050565b5f602082840312156108ad575f80fd5b6108b682610882565b9392505050565b634e487b7160e01b5f52602160045260245ffd5b600481106108ed57634e487b7160e01b5f52602160045260245ffd5b9052565b8151815260208083015160c083019161090c908401826108d1565b5060408301516040830152606083015160608301526080830151608083015260a083015160a083015292915050565b80358015158114610898575f80fd5b5f805f6060848603121561095c575f80fd5b61096584610882565b92506109736020850161093b565b91506109816040850161093b565b90509250925092565b6020810161099882846108d1565b92915050565b86815260c081016109b260208301886108d1565b8560408301528460608301528360808301528260a0830152979650505050505050565b634e487b7160e01b5f52601160045260245ffd5b5f600182016109fa576109fa6109d5565b5060010190565b80820180821115610998576109986109d5565b81810381811115610998576109986109d5565b828152604081016108b660208301846108d156fea26469706673582212207b19925a1864ce4b2f218f3f9a72352cecbd740a895e5a9af33fecdfa84396c764736f6c63430008140033","linkReferences":{}},"methodIdentifiers":{"creditScores(address)":"80bb7273","getBorrowingLimitMultiplier(address)":"879ed13d","getCreditData(address)":"59157a27","getCreditScore(address)":"d3dd2bdf","getCreditTier(address)":"61075f8e","getInterestRateAdjustment(address)":"e3c1607b","initializeCreditScore(address)":"f1d737fd","owner()":"8da5cb5b","recordLoan(address,bool,bool)":"60e97e05","renounceOwnership()":"715018a6","transferOwnership(address)":"f2fde38b"},"id":20}