{"abi":[{"type":"constructor","inputs":[{"name":"_creditPool","type":"address","internalType":"address"},{"name":"_creditScore","type":"address","internalType":"address"}],"stateMutability":"nonpayable"},{"type":"function","name":"calculateTotalOwed","inputs":[{"name":"loanId","type":"uint256","internalType":"uint256"}],"outputs":[{"name":"","type":"uint256","internalType":"uint256"}],"stateMutability":"view"},{"type":"function","name":"creditPool","inputs":[],"outputs":[{"name":"","type":"address","internalType":"contract CreditPool"}],"stateMutability":"view"},{"type":"function","name":"creditScore","inputs":[],"outputs":[{"name":"","type":"address","internalType":"contract CreditScore"}],"stateMutability":"view"},{"type":"function","name":"getActiveLoans","inputs":[{"name":"user","type":"address","internalType":"address"}],"outputs":[{"name":"","type":"uint256[]","internalType":"uint256[]"}],"stateMutability":"view"},{"type":"function","name":"getLoan","inputs":[{"name":"loanId","type":"uint256","internalType":"uint256"}],"outputs":[{"name":"","type":"tuple","internalType":"struct LoanManager.Loan","components":[{"name":"borrower","type":"address","internalType":"address"},{"name":"amount","type":"uint256","internalType":"uint256"},{"name":"interestRate","type":"uint256","internalType":"uint256"},{"name":"duration","type":"uint256","internalType":"uint256"},{"name":"borrowedAt","type":"uint256","internalType":"uint256"},{"name":"dueDate","type":"uint256","internalType":"uint256"},{"name":"repaidAmount","type":"uint256","internalType":"uint256"},{"name":"status","type":"uint8","internalType":"enum LoanManager.LoanStatus"},{"name":"creditScoreAtBorrow","type":"uint256","internalType":"uint256"}]}],"stateMutability":"view"},{"type":"function","name":"getUserLoans","inputs":[{"name":"user","type":"address","internalType":"address"}],"outputs":[{"name":"","type":"uint256[]","internalType":"uint256[]"}],"stateMutability":"view"},{"type":"function","name":"isOverdue","inputs":[{"name":"loanId","type":"uint256","internalType":"uint256"}],"outputs":[{"name":"","type":"bool","internalType":"bool"}],"stateMutability":"view"},{"type":"function","name":"loans","inputs":[{"name":"","type":"uint256","internalType":"uint256"}],"outputs":[{"name":"borrower","type":"address","internalType":"address"},{"name":"amount","type":"uint256","internalType":"uint256"},{"name":"interestRate","type":"uint256","internalType":"uint256"},{"name":"duration","type":"uint256","internalType":"uint256"},{"name":"borrowedAt","type":"uint256","internalType":"uint256"},{"name":"dueDate","type":"uint256","internalType":"uint256"},{"name":"repaidAmount","type":"uint256","internalType":"uint256"},{"name":"status","type":"uint8","internalType":"enum LoanManager.LoanStatus"},{"name":"creditScoreAtBorrow","type":"uint256","internalType":"uint256"}],"stateMutability":"view"},{"type":"function","name":"markAsDefault","inputs":[{"name":"loanId","type":"uint256","internalType":"uint256"}],"outputs":[],"stateMutability":"nonpayable"},{"type":"function","name":"nextLoanId","inputs":[],"outputs":[{"name":"","type":"uint256","internalType":"uint256"}],"stateMutability":"view"},{"type":"function","name":"owner","inputs":[],"outputs":[{"name":"","type":"address","internalType":"address"}],"stateMutability":"view"},{"type":"function","name":"renounceOwnership","inputs":[],"outputs":[],"stateMutability":"nonpayable"},{"type":"function","name":"repayLoan","inputs":[{"name":"loanId","type":"uint256","internalType":"uint256"}],"outputs":[],"stateMutability":"payable"},{"type":"function","name":"requestLoan","inputs":[{"name":"amount","type":"uint256","internalType":"uint256"},{"name":"durationDays","type":"uint256","internalType":"uint256"}],"outputs":[{"name":"","type":"uint256","internalType":"uint256"}],"stateMutability":"nonpayable"},{"type":"function","name":"transferOwnership","inputs":[{"name":"newOwner","type":"address","internalType":"address"}],"outputs":[],"stateMutability":"nonpayable"},{"type":"function","name":"userLoans","inputs":[{"name":"","type":"address","internalType":"address"},{"name":"","type":"uint256","internalType":"uint256"}],"outputs":[{"name":"","type":"uint256","internalType":"uint256"}],"stateMutability":"view"},{"type":"event","name":"LoanCreated","inputs":[{"name":"loanId","type":"uint256","indexed":true,"internalType":"uint256"},{"name":"borrower","type":"address","indexed":true,"internalType":"address"},{"name":"amount","type":"uint256","indexed":false,"internalType":"uint256"},{"name":"interestRate","type":"uint256","indexed":false,"internalType":"uint256"},{"name":"duration","type":"uint256","indexed":false,"internalType":"uint256"}],"anonymous":false},{"type":"event","name":"LoanDefaulted","inputs":[{"name":"loanId","type":"uint256","indexed":true,"internalType":"uint256"},{"name":"borrower","type":"address","indexed":true,"internalType":"address"}],"anonymous":false},{"type":"event","name":"LoanRepaid","inputs":[{"name":"loanId","type":"uint256","indexed":true,"internalType":"uint256"},{"name":"borrower","type":"address","indexed":true,"internalType":"address"},{"name":"amount","type":"uint256","indexed":false,"internalType":"uint256"}],"anonymous":false},{"type":"event","name":"OwnershipTransferred","inputs":[{"name":"previousOwner","type":"address","indexed":true,"internalType":"address"},{"name":"newOwner","type":"address","indexed":true,"internalType":"address"}],"anonymous":false},{"type":"error","name":"OwnableInvalidOwner","inputs":[{"name":"owner","type":"address","internalType":"address"}]},{"type":"error","name":"OwnableUnauthorizedAccount","inputs":[{"name":"account","type":"address","internalType":"address"}]},{"type":"error","name":"ReentrancyGuardReentrantCall","inputs":[]}],"bytecode":{"object":"0x6080604052600160055534801562000015575f80fd5b506040516200173e3803806200173e83398101604081905262000038916200012b565b33806200005e57604051631e4fbdf760e01b81525f600482015260240160405180910390fd5b6200006981620000c0565b5060017f9b779b17422d0df92223018b32b4d1fa46e071723d6817e2486d003becc55f0055600180546001600160a01b039384166001600160a01b0319918216179091556002805492909316911617905562000161565b5f80546001600160a01b038381166001600160a01b0319831681178455604051919092169283917f8be0079c531659141344cd1fd0a4f28419497f9722a3daafe3b4186f6b6457e09190a35050565b80516001600160a01b038116811462000126575f80fd5b919050565b5f80604083850312156200013d575f80fd5b62000148836200010f565b915062000158602084016200010f565b90509250929050565b6115cf806200016f5f395ff3fe6080604052600436106100ef575f3560e01c80638da5cb5b11610087578063d22a0d0f11610057578063d22a0d0f1461028e578063d8bad5bd146102bd578063e1ec3c68146102dc578063f2fde38b14610366575f80fd5b80638da5cb5b14610221578063aa452fa61461023d578063ab7b1c891461025c578063b59d38d71461026f575f80fd5b806339da3152116100c257806339da3152146101ab578063504006ca146101ca578063715018a6146101f657806387c514591461020c575f80fd5b806302bf321f146100f357806303d1a1a11461012857806329194ee3146101475780632ff1ab9514610174575b5f80fd5b3480156100fe575f80fd5b5061011261010d3660046112f4565b610385565b60405161011f919061130d565b60405180910390f35b348015610133575f80fd5b506101126101423660046112f4565b6103ee565b348015610152575f80fd5b50610166610161366004611350565b6105ca565b60405190815260200161011f565b34801561017f575f80fd5b50600154610193906001600160a01b031681565b6040516001600160a01b03909116815260200161011f565b3480156101b6575f80fd5b50600254610193906001600160a01b031681565b3480156101d5575f80fd5b506101e96101e4366004611350565b6106e2565b60405161011f919061139b565b348015610201575f80fd5b5061020a610796565b005b348015610217575f80fd5b5061016660055481565b34801561022c575f80fd5b505f546001600160a01b0316610193565b348015610248575f80fd5b5061016661025736600461140d565b6107a9565b61020a61026a366004611350565b610bc7565b34801561027a575f80fd5b5061020a610289366004611350565b610ebe565b348015610299575f80fd5b506102ad6102a8366004611350565b61107c565b604051901515815260200161011f565b3480156102c8575f80fd5b506101666102d736600461142d565b611152565b3480156102e7575f80fd5b506103516102f6366004611350565b600360208190525f91825260409091208054600182015460028301549383015460048401546005850154600686015460078701546008909701546001600160a01b039096169794969495939492939192909160ff9091169089565b60405161011f99989796959493929190611455565b348015610371575f80fd5b5061020a6103803660046112f4565b61117d565b6001600160a01b0381165f908152600460209081526040918290208054835181840281018401909452808452606093928301828280156103e257602002820191905f5260205f20905b8154815260200190600101908083116103ce575b50505050509050919050565b6001600160a01b0381165f90815260046020908152604080832080548251818502810185019093528083526060949383018282801561044a57602002820191905f5260205f20905b815481526020019060010190808311610436575b505050505090505f805b82518110156104c9575f60035f858481518110610473576104736114b2565b60209081029190910181015182528101919091526040015f206007015460ff1660028111156104a4576104a4611367565b036104b757816104b3816114da565b9250505b806104c1816114da565b915050610454565b505f8167ffffffffffffffff8111156104e4576104e46114f2565b60405190808252806020026020018201604052801561050d578160200160208202803683370190505b5090505f805b84518110156105bf575f60035f878481518110610532576105326114b2565b60209081029190910181015182528101919091526040015f206007015460ff16600281111561056357610563611367565b036105ad5784818151811061057a5761057a6114b2565b6020026020010151838381518110610594576105946114b2565b6020908102919091010152816105a9816114da565b9250505b806105b7816114da565b915050610513565b509095945050505050565b5f81815260036020818152604080842081516101208101835281546001600160a01b031681526001820154938101939093526002808201549284019290925292830154606083015260048301546080830152600583015460a0830152600683015460c0830152600783015484939160e084019160ff169081111561065057610650611367565b600281111561066157610661611367565b81526008919091015460209091015290505f8160e00151600281111561068957610689611367565b1461069657505f92915050565b5f6237b1d08260600151836040015184602001516106b49190611506565b6106be9190611506565b6106c8919061151d565b90508082602001516106da919061153c565b949350505050565b6106ea61127c565b5f8281526003602081815260409283902083516101208101855281546001600160a01b031681526001820154928101929092526002808201549483019490945291820154606082015260048201546080820152600582015460a0820152600682015460c08201526007820154909260e084019160ff169081111561077057610770611367565b600281111561078157610781611367565b81526020016008820154815250509050919050565b61079e6111b7565b6107a75f6111e3565b565b5f6107b2611232565b5f83116108115760405162461bcd60e51b815260206004820152602260248201527f4c6f616e20616d6f756e74206d7573742062652067726561746572207468616e604482015261020360f41b60648201526084015b60405180910390fd5b5f82118015610822575061016d8211155b6108615760405162461bcd60e51b815260206004820152601060248201526f24b73b30b634b210323ab930ba34b7b760811b6044820152606401610808565b600154604051634b79cb0f60e01b81523360048201525f916001600160a01b031690634b79cb0f90602401602060405180830381865afa1580156108a7573d5f803e3d5ffd5b505050506040513d601f19601f820116820180604052508101906108cb919061154f565b90508084111561091d5760405162461bcd60e51b815260206004820152601760248201527f4578636565647320626f72726f77696e67206c696d69740000000000000000006044820152606401610808565b60025460405163d3dd2bdf60e01b81523360048201525f916001600160a01b03169063d3dd2bdf90602401602060405180830381865afa158015610963573d5f803e3d5ffd5b505050506040513d601f19601f82011682018060405250810190610987919061154f565b600154604051634b8a352960e01b8152336004820152602481018890529192505f916001600160a01b0390911690634b8a3529906044016020604051808303815f875af11580156109da573d5f803e3d5ffd5b505050506040513d601f19601f820116820180604052508101906109fe919061154f565b600580549192505f919082610a12836114da565b9091555090505f610a268762015180611506565b610a30904261153c565b9050604051806101200160405280336001600160a01b031681526020018981526020018481526020018881526020014281526020018281526020015f81526020015f6002811115610a8357610a83611367565b81526020018581525060035f8481526020019081526020015f205f820151815f015f6101000a8154816001600160a01b0302191690836001600160a01b031602179055506020820151816001015560408201518160020155606082015181600301556080820151816004015560a0820151816005015560c0820151816006015560e0820151816007015f6101000a81548160ff02191690836002811115610b2c57610b2c611367565b02179055506101009190910151600890910155335f81815260046020908152604080832080546001810182559084529282902090920185905581518b815290810186905290810189905283907fb2cca1719ad611d325136b9c9a4357f412d33694d93c60d4c1b6e922d524cf599060600160405180910390a3509350505050610bc160015f8051602061157a83398151915255565b92915050565b610bcf611232565b5f81815260036020526040902080546001600160a01b03163314610c295760405162461bcd60e51b81526020600482015260116024820152702737ba103637b0b7103137b93937bbb2b960791b6044820152606401610808565b5f600782015460ff166002811115610c4357610c43611367565b14610c825760405162461bcd60e51b815260206004820152600f60248201526e4c6f616e206e6f742061637469766560881b6044820152606401610808565b5f610c8c836105ca565b905080341015610cde5760405162461bcd60e51b815260206004820152601d60248201527f496e73756666696369656e742072657061796d656e7420616d6f756e740000006044820152606401610808565b5f826001015482610cef9190611566565b346006850181905560078501805460ff1916600190811790915580549086015460405163d8aed14560e01b81526004810191909152602481018490529293506001600160a01b03169163d8aed14591906044015f604051808303818588803b158015610d59575f80fd5b505af1158015610d6b573d5f803e3d5ffd5b50506002546040516360e97e0560e01b8152336004820152600160248201525f60448201526001600160a01b0390911693506360e97e05925060640190505f604051808303815f87803b158015610dc0575f80fd5b505af1158015610dd2573d5f803e3d5ffd5b50506040513481523392508691507f512d3e65b3e58c2187bb1872aa435dba5bd09c1c03823ba56ab70aac411e4a219060200160405180910390a381341115610ea2575f33610e218434611566565b6040515f81818185875af1925050503d805f8114610e5a576040519150601f19603f3d011682016040523d82523d5f602084013e610e5f565b606091505b5050905080610ea05760405162461bcd60e51b815260206004820152600d60248201526c1499599d5b990819985a5b1959609a1b6044820152606401610808565b505b505050610ebb60015f8051602061157a83398151915255565b50565b5f81815260036020526040812090600782015460ff166002811115610ee557610ee5611367565b14610f245760405162461bcd60e51b815260206004820152600f60248201526e4c6f616e206e6f742061637469766560881b6044820152606401610808565b80600501544211610f6a5760405162461bcd60e51b815260206004820152601060248201526f4c6f616e206e6f74207965742064756560801b6044820152606401610808565b60078101805460ff191660021790556001805490820154604051634af37b2360e01b815260048101919091526001600160a01b0390911690634af37b23906024015f604051808303815f87803b158015610fc2575f80fd5b505af1158015610fd4573d5f803e3d5ffd5b505060025483546040516360e97e0560e01b81526001600160a01b0391821660048201525f602482015260016044820152911692506360e97e0591506064015f604051808303815f87803b15801561102a575f80fd5b505af115801561103c573d5f803e3d5ffd5b505082546040516001600160a01b0390911692508491507f13b88e6866f0156d706fecfa22b678de5fc2b749c1d2307f6f47eb541385f1ec905f90a35050565b5f81815260036020818152604080842081516101208101835281546001600160a01b031681526001820154938101939093526002808201549284019290925292830154606083015260048301546080830152600583015460a0830152600683015460c0830152600783015484939160e084019160ff169081111561110257611102611367565b600281111561111357611113611367565b81526008919091015460209091015290505f8160e00151600281111561113b5761113b611367565b14801561114b57508060a0015142115b9392505050565b6004602052815f5260405f20818154811061116b575f80fd5b905f5260205f20015f91509150505481565b6111856111b7565b6001600160a01b0381166111ae57604051631e4fbdf760e01b81525f6004820152602401610808565b610ebb816111e3565b5f546001600160a01b031633146107a75760405163118cdaa760e01b8152336004820152602401610808565b5f80546001600160a01b038381166001600160a01b0319831681178455604051919092169283917f8be0079c531659141344cd1fd0a4f28419497f9722a3daafe3b4186f6b6457e09190a35050565b61123a61124d565b60025f8051602061157a83398151915255565b5f8051602061157a833981519152546002036107a757604051633ee5aeb560e01b815260040160405180910390fd5b6040518061012001604052805f6001600160a01b031681526020015f81526020015f81526020015f81526020015f81526020015f81526020015f81526020015f60028111156112cd576112cd611367565b81526020015f81525090565b80356001600160a01b03811681146112ef575f80fd5b919050565b5f60208284031215611304575f80fd5b61114b826112d9565b602080825282518282018190525f9190848201906040850190845b8181101561134457835183529284019291840191600101611328565b50909695505050505050565b5f60208284031215611360575f80fd5b5035919050565b634e487b7160e01b5f52602160045260245ffd5b6003811061139757634e487b7160e01b5f52602160045260245ffd5b9052565b5f6101208201905060018060a01b0383511682526020830151602083015260408301516040830152606083015160608301526080830151608083015260a083015160a083015260c083015160c083015260e08301516113fd60e084018261137b565b5061010092830151919092015290565b5f806040838503121561141e575f80fd5b50508035926020909101359150565b5f806040838503121561143e575f80fd5b611447836112d9565b946020939093013593505050565b6001600160a01b038a1681526020810189905260408101889052606081018790526080810186905260a0810185905260c08101849052610120810161149d60e083018561137b565b826101008301529a9950505050505050505050565b634e487b7160e01b5f52603260045260245ffd5b634e487b7160e01b5f52601160045260245ffd5b5f600182016114eb576114eb6114c6565b5060010190565b634e487b7160e01b5f52604160045260245ffd5b8082028115828204841417610bc157610bc16114c6565b5f8261153757634e487b7160e01b5f52601260045260245ffd5b500490565b80820180821115610bc157610bc16114c6565b5f6020828403121561155f575f80fd5b5051919050565b81810381811115610bc157610bc16114c656fe9b779b17422d0df92223018b32b4d1fa46e071723d6817e2486d003becc55f00a2646970667358221220c14055101de8ede8e64789357369ff74c1a87a24e4ba85fcc56a16a7180f86bd64736f6c63430008140033","linkReferences":{}},"methodIdentifiers":{"calculateTotalOwed(uint256)":"29194ee3","creditPool()":"2ff1ab95","creditScore()":"39da3152","getActiveLoans(address)":"03d1a1a1","getLoan(uint256)":"504006ca","getUserLoans(address)":"02bf321f","isOverdue(uint256)":"d22a0d0f","loans(uint256)":"e1ec3c68","markAsDefault(uint256)":"b59d38d7","nextLoanId()":"87c51459","owner()":"8da5cb5b","renounceOwnership()":"715018a6","repayLoan(uint256)":"ab7b1c89","requestLoan(uint256,uint256)":"aa452fa6","transferOwnership(address)":"f2fde38b","userLoans(address,uint256)":"d8bad5bd"},"id":21}